:020000040000FA
:10000000012883160313FF308500860187018801CC
:1000100080309F0083120313FF3085008601870123
:10002000880183120313C1309F0041208312031300
:10003000831203131F30A2001F15412034208312A6
:1000400003130818262088182D201C288312031358
:100050000230A2074120342008008312031302302B
:10006000A2024120342008001E082202031D3D2860
:10007000392883120313071408008312031307108F
:100080000800FF30A000FF30A100A10B4528A00B05
:0400900043280800F9
:00000001FF
